:020000040000fa
:080000000002040000000000f2
:020000040000fa
:04000800200a0000ca
:020000040000fa
:04000c00cc02000022
:020000040000fa
:04001000de0200000c
:020000040000fa
:04001400d402000012
:020000040000fa
:04001800e6020000fc
:020000040000fa
:04001c00200a0000b6
:020000040000fa
:04002000200a0000b2
:020000040000fa
:04002400200a0000ae
:020000040000fa
:04002800200a0000aa
:020000040000fa
:04002c00200a0000a6
:020000040000fa
:04003000200a0000a2
:020000040000fa
:04003400200a00009e
:020000040000fa
:04003800200a00009a
:020000040000fa
:04003c00200a000096
:020000040000fa
:04004000200a000092
:020000040000fa
:04004400b8090000f7
:020000040000fa
:04004800200a00008a
:020000040000fa
:04004c00200a000086
:020000040000fa
:04005000200a000082
:020000040000fa
:04005400200a00007e
:020000040000fa
:04005800200a00007a
:020000040000fa
:04005c00f0090000a7
:020000040000fa
:04006000200a000072
:020000040000fa
:04006400200a00006e
:020000040000fa
:04006800200a00006a
:020000040000fa
:04006c00200a000066
:020000040000fa
:04007000200a000062
:020000040000fa
:04007400200a00005e
:020000040000fa
:04007800200a00005a
:020000040000fa
:04007c00200a000056
:020000040000fa
:04008000200a000052
:020000040000fa
:04008400200a00004e
:020000040000fa
:04008800200a00004a
:020000040000fa
:04008c00200a000046
:020000040000fa
:04009000200a000042
:020000040000fa
:04009400200a00003e
:020000040000fa
:04009800200a00003a
:020000040000fa
:04009c00200a000036
:020000040000fa
:0400a0001403000045
:020000040000fa
:0400a400ee02000068
:020000040000fa
:0400a800200a00002a
:020000040000fa
:0400ac00200a000026
:020000040000fa
:0400b000200a000022
:020000040000fa
:0400b400200a00001e
:020000040000fa
:0400b800200a00001a
:020000040000fa
:0400bc00200a000016
:020000040000fa
:0400c000200a000012
:020000040000fa
:0400c400200a00000e
:020000040000fa
:0400c800200a00000a
:020000040000fa
:0400cc00200a000006
:020000040000fa
:0400d000200a000002
:020000040000fa
:0400d400200a0000fe
:020000040000fa
:0400d800200a0000fa
:020000040000fa
:0400dc00200a0000f6
:020000040000fa
:0400e000200a0000f2
:020000040000fa
:0400e400200a0000ee
:020000040000fa
:0400e800200a0000ea
:020000040000fa
:0400ec00200a0000e6
:020000040000fa
:0400f000200a0000e2
:020000040000fa
:0400f400200a0000de
:020000040000fa
:0400f800200a0000da
:020000040000fa
:0400fc00200a0000d6
:020000040000fa
:04010000200a0000d1
:020000040000fa
:04010400200a0000cd
:020000040000fa
:04010800200a0000c9
:020000040000fa
:04010c00200a0000c5
:020000040000fa
:04011000200a0000c1
:020000040000fa
:04011400200a0000bd
:020000040000fa
:04011800200a0000b9
:020000040000fa
:04011c00200a0000b5
:020000040000fa
:04012000200a0000b1
:020000040000fa
:04012400200a0000ad
:020000040000fa
:04012800200a0000a9
:020000040000fa
:04012c00200a0000a5
:020000040000fa
:04013000a209000020
:020000040000fa
:04013400200a00009d
:020000040000fa
:04013800200a000099
:020000040000fa
:04013c00200a000095
:020000040000fa
:04014000200a000091
:020000040000fa
:04014400200a00008d
:020000040000fa
:04014800200a000089
:020000040000fa
:04020800200a0000c8
:020000040000fa
:04020c00200a0000c4
:020000040000fa
:04021000200a0000c0
:020000040000fa
:04021400200a0000bc
:020000040000fa
:04021800200a0000b8
:020000040000fa
:04021c00200a0000b4
:020000040000fa
:04022000200a0000b0
:020000040000fa
:04022400200a0000ac
:020000040000fa
:04022800200a0000a8
:020000040000fa
:04022c00200a0000a4
:020000040000fa
:04023000200a0000a0
:020000040000fa
:04023400200a00009c
:020000040000fa
:04023800200a000098
:020000040000fa
:04023c00200a000094
:020000040000fa
:04024000200a000090
:020000040000fa
:04024400200a00008c
:020000040000fa
:04024800200a000088
:020000040000fa
:04024c00200a000084
:020000040000fa
:04025000200a000080
:020000040000fa
:04025400200a00007c
:020000040000fa
:04025800200a000078
:020000040000fa
:04025c00200a000074
:020000040000fa
:04026000200a000070
:020000040000fa
:04026400200a00006c
:020000040000fa
:04026800200a000068
:020000040000fa
:04026c00200a000064
:020000040000fa
:04027000200a000060
:020000040000fa
:04027400200a00005c
:020000040000fa
:04027800200a000058
:020000040000fa
:04027c00200a000054
:020000040000fa
:04028000200a000050
:020000040000fa
:04028400200a00004c
:020000040000fa
:04028800200a000048
:020000040000fa
:04028c00200a000044
:020000040000fa
:04029000200a000040
:020000040000fa
:04029400200a00003c
:020000040000fa
:04029800200a000038
:020000040000fa
:04029c00200a000034
:020000040000fa
:0402a000200a000030
:020000040000fa
:0402a400200a00002c
:020000040000fa
:0402a800200a000028
:020000040000fa
:0402ac00200a000024
:020000040000fa
:0402b000200a000020
:020000040000fa
:0402b400200a00001c
:020000040000fa
:0402b800200a000018
:020000040000fa
:0402bc00200a000014
:020000040000fa
:0402c000200a000010
:020000040000fa
:0402c400200a00000c
:020000040000fa
:0402c800200a000008
:020000040000fa
:0402cc00200a000004
:020000040000fa
:0402d000200a000000
:020000040000fa
:0402d400200a0000fc
:020000040000fa
:0402d800200a0000f8
:020000040000fa
:0402dc00200a0000f4
:020000040000fa
:0402e000200a0000f0
:020000040000fa
:0402e400200a0000ec
:020000040000fa
:0402e800200a0000e8
:020000040000fa
:0402ec00200a0000e4
:020000040000fa
:0402f000200a0000e0
:020000040000fa
:0402f400200a0000dc
:020000040000fa
:0402f800200a0000d8
:020000040000fa
:0402fc00200a0000d4
:020000040000fa
:04030000200a0000cf
:020000040000fa
:04030400200a0000cb
:020000040000fa
:04030800200a0000c7
:020000040000fa
:04030c00200a0000c3
:020000040000fa
:04031000200a0000bf
:020000040000fa
:04031400200a0000bb
:020000040000fa
:04031800200a0000b7
:020000040000fa
:04031c00200a0000b3
:020000040000fa
:04032000200a0000af
:020000040000fa
:04032400200a0000ab
:020000040000fa
:04032800200a0000a7
:020000040000fa
:04032c00200a0000a3
:020000040000fa
:04033000200a00009f
:020000040000fa
:04033400200a00009b
:020000040000fa
:04033800200a000097
:020000040000fa
:04033c00200a000093
:020000040000fa
:04034000200a00008f
:020000040000fa
:04034400200a00008b
:020000040000fa
:04034800200a000087
:020000040000fa
:10040000af9220000e7f22000e0188000000000045
:10041000000020000000e000020032000001200087
:100420002002880014000700070407000000e00015
:1004300003003a0000802100010020000200370084
:100440000000200001002000810f70000100320038
:1004500014000700000020000000e000020032004d
:1004600000000200000000009818020000000000d8
:100470000040da000000fe004440a90000202000f7
:100480000000e0000300320000002000a00188000e
:100490004440a800000006008a1f78008b1f7800e7
:1004a0000000060091018800800478000000eb0045
:1004b0001a003700e284440032a0b4009905ba0063
:1004c000e284440032a0b4009906ba00e2844400f9
:1004d00032a0b4000006eb00476fde00fd07b2005b
:1004e000636ce10003003a00ebff07000000eb0043
:1004f0000a003700606ce10004003a00005deb0088
:100500008b05e900fdff3e00040037006168e10053
:10051000010032000086eb000b00070019c7ba008b
:100520001905ba000e04e00003003a000a00e000da
:10053000e0ff3a0000000600fe07b2009e018800be
:100540008a047800f5ff3700395dba008b05e900b1
:100550000c003200295dba008b05e900080032006a
:100560000c00e00003003a00e284440032a0b40032
:10057000f5ff370019ddba008b05e900faff3a00f4
:100580008904e800e184440032a0b40000000600c1
:1005900000000000000000003600f8008020a900e4
:1005a0000000eb00cb0a07003600f800cd0a070078
:1005b0008040a90010002000c60a07003600f8009d
:1005c0008060a90020002000c20a07003600f80061
:1005d0008080a90030002000be0a0700801f78003c
:1005e0000000fa00a04080000000e800a040880061
:1005f00016c8bf000040e90016e8b70016c8bf00e3
:100600000004e00004003200a040800010407800a8
:100610000080fb00a011880087e0a9000080fa009c
:100620004f007800004006003600f800809fbe00b2
:10063000829fbe00849fbe00869fbe00881f7800f8
:100640000200fa000621ef00b0118000004f780090
:10065000704080008000eb00a2002000030020001a
:10066000820f5000838f58002d033e000060010070
:100670000a0037001b0037005800370064003700bd
:10068000700037007c003700a6003700b20037004a
:100690008c003700960037001c033700c422a900e5
:1006a0001e407800e14f50000b003a001268ef0046
:1006b00012c8bf008080fb00e28220009e417800cb
:1006c00003f178000040e80012e8b70010002000b5
:1006d0007040880012033700a0002000704088009e
:1006e0000f03370012c8bf008080fb00e2822000a9
:1006f0009e41780003f178000040e80012e8b7005e
:100700001e80fb00804088001e80fb00e40f50002c
:100710001b003200e40f500007003c00e20f5000c5
:1007200011003200e20f500012003c00e10f5000b7
:100730000a00320025003700e60f50001600320094
:10074000e60f500011003500ef0f50001500320089
:10075000f00f5000180032001c003700200020006d
:10076000704088001c003700200020007040880086
:100770001900370020002000704088001600370064
:100780002000200070408800130037002000200067
:100790007040880010003700200020007040880062
:1007a0000d00370010c0b3000de8b7002000200096
:1007b000704088000800370010c0b3000de8b70093
:1007c000200020007040880003003700a0002000b7
:1007d0007040880000000000d102370012c8bf003e
:1007e0008080fb00e28220009e41780003f17800c7
:1007f0000040e80012e8b7001e4178001180200098
:10080000824878003000200070408800c402370021
:1008100012c8bf008080fb00e28220009e41780069
:1008200003f178000040e80012e8b7001e417800ac
:10083000018020008248780040002000704088003d
:10084000b702370012c8bf008080fb00e2822000a0
:100850009e41780003f178000040e80012e8b700fc
:100860001e4178003180200082487800500020002e
:1008700070408800aa02370012c8bf008080fb00c9
:10088000e28220009e41780003f178000040e800f9
:1008900012e8b7001e4178002180200082487800cd
:1008a0000dc8bf000004a2000004e00002003200f6
:1008b00060002000010037008000200070408800a8
:1008c0009702370012c8bf008080fb00e282200040
:1008d0009e41780003f178000040e80012e8b7007c
:1008e0000d68ef0090002000704088008c023700f7
:1008f00012c8bf008080fb00e28220009e41780089
:1009000003f178000040e80012e8b7001e417800cb
:1009100061802000824878006000200070408800dc
:100920007f02370012c8bf008080fb00e2822000f7
:100930009e41780003f178000040e80012e8b7001b
:100940001e4178005180200082487800700020000d
:10095000704088007202370012c8bf008080fb0020
:10096000e28220009e41780003f178000040e80018
:1009700012e8b7001e4178004180200082487800cc
:10098000a00020007040880012c8bf000080fb005b
:1009900080007800e0822000720907000000e0007b
:1009a0005c023a00201680006100600000f0a700a1
:1009b0000000ea000000e9004f00de00004078007f
:1009c0000080fb0061006000211680000100a10092
:1009d000010070002016880080408000e40f500065
:1009e000f7003200e40f500007003e00e20f500015
:1009f00050003200e20f50008b003e00e10f50002b
:100a00000a0032001b023700e60f5000940132004a
:100a1000e60f50005c013900ef0f5000d1013200a9
:100a2000f00f5000f1013200120237000140800047
:100a30001040800000804000e60f500003003600a8
:100a400010c0b3000ce8b7000a0237000140800074
:100a500010408000d507070010418800e082200088
:100a6000904078002089200001487800f082200022
:100a700090407800308920000148780040892000ab
:100a800011c0b30001487800218220009140780015
:100a90005089200001487800318220009140780080
:100aa00060892000014878004089200010407800cb
:100ab0000080fb0063004000800078002089200057
:100ac0002809070020408800408920001040780055
:100ad0000080fb006300400042802000124178004b
:100ae0002189200082707800408920001040780021
:100af0000080fb006400400052802000124178001a
:100b00002189200082707800408920001040780000
:100b10006540400016e8b70020892000a04088000a
:100b2000a0408000104078000080fb00a0118800e9
:100b3000d0013700014080001040800080804000dc
:100b400020712200808f500004003e000140800090
:100b500000712200808f500003003e0010c0b300df
:100b60000ce8b700c3013700e08220009040780015
:100b70002089200001487800f08220009040780011
:100b800030892000014878004089200011c0b3005e
:100b900001487800501680004500de00614060008a
:100ba00080407800508920000148780041002000f2
:100bb00020892000eb0807002040880040892000a1
:100bc000104078000080fb0063004000428020005d
:100bd000124178002189200082707800408920002d
:100be000104078000080fb0064004000528020002c
:100bf000124178002189200082707800408920000d
:100c0000104078006540400016e8b70020892000b9
:100c1000a0408800a0408000104078000080fb00c9
:100c2000a01188009301370001408000104080002f
:100c30008080400050c42900808f500004003e0096
:100c40000140800000c42900808f500003003e0056
:100c500010c0b3000ce8b70086013700e082200026
:100c6000904078002089200001487800f082200020
:100c700090407800308920000148780010408000c2
:100c8000004078000040400080407800408920000b
:100c9000014878000828ef0001408000f03b260062
:100ca00000804000504088001b003700404080001a
:100cb00000004000e300400050408000828120009e
:100cc00000004000000041001041900020892000f9
:100cd00002f07800404080000080e8000000400002
:100ce0008000780050408000828120000000400099
:100cf00000004100104178002089200002f07800b7
:100d0000404080000000e8004040880050408000e3
:100d10000000e800504088005040800080007800cb
:100d2000024080001040800000014100f03b26009e
:100d300000004100808f5000dcff3900104080002f
:100d400000004000630040008000780020892000ff
:100d50008408070020408800104080000000400008
:100d60006300400042802000124178002189200069
:100d700082707800104080000080e8000000400091
:100d80005280200012417800218920008270780072
:100d90001040800000407800004040006540400066
:100da00016e8b70020892000a0408800a0408000fd
:100db000104078000080fb00a01188002d01370052
:100dc0000140800010408000808040004053270098
:100dd000808f500004003e00014080000053270037
:100de000808f500003003e0010c0b3000ce8b70035
:100df00020013700e0822000904078002089200008
:100e000001487800f082200090407800308920006e
:100e10000148780010408000004078000040400009
:100e20008040780040892000014878000828ef00c1
:100e300001408000f0ac2800008040005040880055
:100e4000270037000140800010ad280000804000de
:100e50003041880058408000304180006207070020
:100e60008000780008014400608f200000004100ed
:100e7000010878004040800000004000e30040008e
:100e80005040800000014000608f200000004100c1
:100e9000104190002089200002f07800404080003e
:100ea0000080e80000004000800078005040800092
:100eb00000014000608f20000000410010417800d8
:100ec0002089200002f07800404080000000e80007
:100ed00040408800504080000000e80050408800fa
:100ee0005040800080007800024080001040800068
:100ef00000014100f0ac280000004100808f50004c
:100f0000d0ff390010408000000040006300400026
:100f10008000780020892000120807002040880007
:100f2000104080000000400063004000428020002c
:100f300012417800218920008270780010408000e2
:100f40000080e8000000400052802000124178003c
:100f500021892000827078001040800000407800d5
:100f6000004040006540400016e8b700208920009e
:100f7000a0408800a0408000104078000080fb0066
:100f8000a0118800bb00370000408000e60f500031
:100f90000300360010c0b3000ce8b700b5003700fe
:100fa000e0822000904078002089200001487800ed
:100fb000f0822000904078003089200001487800bd
:100fc000008320009040780040892000014878008c
:100fd000108320009040780050892000014878005c
:100fe00011408000004080000f0607003180200083
:100ff000914078006089200001487800218020001d
:10100000914078007089200001487800610020003c
:1010100020892000d307070020408800418020005d
:10102000914078008089200001487800518020009c
:1010300091407800908920000148780080c0b3007a
:1010400016e8b70020892000a0408800a04080005a
:10105000104078000080fb00a01188008500370058
:1010600001408000f03b260000804000e40f50006b
:101070000300360010c0b3000ce8b7007d00370055
:10108000e08220009040780020892000014878000c
:10109000f0822000904078003089200001487800dc
:1010a00000832000904078004089200001487800ab
:1010b000108320009040780050892000014878007b
:1010c000004080001140800082812000000040002c
:1010d000000041000108780000408000818120006c
:1010e0000000400000804000904090006089200097
:1010f000014878000040800081812000000040000d
:1011000000804000904078007089200001487800fd
:1011100061002000208920009207070020408800fd
:1011200041802000914078008089200001487800ab
:10113000518020009140780090892000014878007b
:1011400080c0b30016e8b70020892000a0408800c6
:10115000a0408000104078000080fb00a0118800b3
:1011600044003700e0822000904078002089200071
:1011700001487800f082200010407800b3c7b30027
:1011800083404000308920000148780040892000d9
:1011900011c0b300014878003100200020892000f0
:1011a00070070700204088004180200091407800af
:1011b000508920000148780051802000914078003b
:1011c000608920000148780050c0b30016e8b700dd
:1011d00020892000a0408800a040800010407800b6
:1011e0000080fb00a011880022003700e082200070
:1011f000904078002089200001487800f08220008b
:1012000010407800b2c7b30082404000308920000f
:10121000014878004089200011c0b30001487800df
:1012200031002000208920004e0707002040880060
:1012300041802000914078005089200001487800ca
:10124000518020009140780060892000014878009a
:1012500050c0b30016e8b70020892000a0408800e5
:10126000a0408000104078000080fb00a0118800a2
:10127000000000000cc8bf000004e000270032009e
:10128000e08220009040780020892000014878000a
:10129000f08220009040780000c8b30080c0400079
:1012a00030892000014878004089200021c0b30027
:1012b000014878003100200020892000290707001c
:1012c0002040880041802000914078005089200013
:1012d000014878005180200091407800608920000a
:1012e000014878000c68ef0050c0b30016e8b70062
:1012f00020892000a0408800a04080001040780095
:101300000080fb00a01188000500370000000000ed
:10131000030037000000000001003700000000005b
:1013200087c0a9000080fa004f0478004f03be0078
:101330004f02be004f01be004f00be003600f90054
:1013400000400600801f78000000fa009011800025
:10135000620060000000e000010032003222a900bb
:101360008c40a9000080fa004f0078000040060081
:101370003600f800809fbe00829fbe00849fbe00a2
:10138000869fbe000000fa00404180000000e0009f
:1013900002003200404180000000010090922000d5
:1013a000104078008040e8009092200001487800ca
:1013b0008092200011c0b300014878000e28ef0091
:1013c00084e0a9000080fa004f03be004f02be0077
:1013d0004f01be004f00be003600f900004006007d
:1013e0003600f800809fbe00829fbe00849fbe0032
:1013f000869fbe003400f80000002000a001880095
:101400000000fa002104800000002200008060003b
:101410000000e00002003200f005070085a0a900ee
:101420000080fa003400f9004f03be004f02be00f6
:101430004f01be004f00be003600f900004006001c
:101440000040da000000fe000000050003f0a200ea
:10145000889fbe008a9fbe008c1f7800b4000700e2
:10146000bb0033006450e1004f0032006420e10013
:101470005200320003826c0007003b000905d000d7
:101480000306d000820f54000c065d0002003900f4
:101490000200320089017800030678008582550039
:1014a00004003d000003fd008103fd008502ea0009
:1014b0008b854200840f720002003b006000100028
:1014c000e08018006011b8000005eb007a28e10008
:1014d0000a00390006007800c75ddd00f707b2009a
:1014e000878075002d003700828171000a01780025
:1014f000610560008180d1000080d3008502e90091
:10150000f9ff3b00060440008784480002003b00ce
:1015100060041400e0841c000988a3000700320066
:101520008a81710082817100610164008904d100a7
:101530000884d3008b05e800170037000978a30062
:1015400013003a000b00e000130034008b05e900a3
:101550000804440089844c000a4474000978a300fc
:101560000d003a000b00e000070034008b05e90095
:101570000804440089844c0001003a000b0020005c
:101580000978a300f7ff32000001eb0002003700ea
:10159000828171000a0178002a0007000cf0a70080
:1015a00001f0a000730037006420e10002003a005f
:1015b000838f6c00730033000801be000200be0080
:1015c0006c0037000001be00440007000470a70053
:1015d00003f0a10003f8a30013003a006509b1006d
:1015e00010003200090035006928e10002003500d2
:1015f0000100280000000500000040008180480034
:101600008502e900fcff3a0000000600f88f420066
:10161000050035008100d1000080d3008502e8007c
:10162000fcff3a00000006008000eb00000005000f
:101630004f89de0082017800690237006011b8002e
:101640007702370081002000618055000b003d00cb
:101650000b00200061fe2f000100e1001d0034009e
:1016600082817100610164008904d1000884d30083
:101670000000e800faff3a007100200061006400f9
:1016800003007000020060000900320061044400a1
:10169000e0844c000988a500050032008b05e800b5
:1016a0006808e10002003a008904d1000884d300f0
:1016b000f20f20000258e10005003d00c75ddd008b
:1016c000f907b20089807500080078000000060064
:1016d0000bf827008b00780000000500c70ade0029
:1016e000f107b200f50fb20008003200e1cf42006e
:1016f000020032000170a00024000500810f70007c
:10170000010032000408050044000500810f70004c
:1017100002003a00140005008502e90000004000c4
:1017200081c04800fcff3b000170a00024000500c0
:101730000004be00e9ff07000003be000405be0070
:101740000200be00e5ff0700844f750000000600a0
:101750000200be006450e100050036006420e10094
:10176000020036000968a30001003a000800be002c
:101770000160a0004f0678004f05be004f04be0078
:1017800000000600f0ff2f00f1ff2700f9ff3700ef
:10179000889fbe008a9fbe008c1f7800e4ff070070
:1017a000ebff330003866c006450e100240032003c
:1017b0006420e100270032006150e1002200320085
:1017c0006120e100210032008b854200eb07b1006f
:1017d0000134b800003ab8000804420089844a0085
:1017e000013ab8000030b8008880400009014a0082
:1017f00004003300000040008180480002014900dd
:101800008b05e900c909dd00830170000100320089
:1018100013002000c814de004814dd004709de0074
:101820001200b200c808de000884700085ff0700bf
:1018300001f0a1000cf0a70001f0a000cdff3700df
:101840006120e100cfff32000801be000200be00af
:10185000f7ff37006150e100fcff3a00c9ff370095
:101860000c00fa00889fbe008a9fbe008c9fbe00bd
:10187000afff07000206be00840578000200be002c
:10188000020020008a01070005003a008b02b30025
:10189000120020008601070001003a00f8856d0063
:1018a0000c01be00c60007000800be009b0032000d
:1018b0000b08a3009e003a000df0a7000be0a0006b
:1018c00009f0a7000bf0a00009f0a1000801be007c
:1018d000bb0007000bf0a6009500320001003c00a1
:1018e0000bd0a0008acf7500b20033006000b800b2
:1018f0006250e10099003900a1003e000b28a300ce
:10190000a2003a000bf8a300060032000b58a30017
:10191000a70032000801be00a90007000800be00b1
:10192000940032000800be00b00007000004be00b2
:10193000050578000bf0a7000b30a6000bf0a10006
:101940005b079800324f200053f323007f0107000c
:1019500005003d000800be0012002000df01070066
:101960000004be000a05e9004a0798006150b9006a
:101970002fff0700008fbe000c01be0084ff070090
:1019800076010700300798000100e00002003d00ea
:1019900060001000e0801800f2ff2700820f500066
:1019a000e08f580064003e000c00be006b01070091
:1019b00020079800f2072000820f5000e08f5800a7
:1019c00005003c0012f82f00f3ff2f00820f50009b
:1019d000838f580009003d000a00e0000300320038
:1019e00001003c000201ea00020578006000b80036
:1019f000200798003a079800190037003e00900031
:101a00006100b9000aff0700809fbe000c00be0005
:101a10004109dd004811de007208b1002401070011
:101a20000005be001e01be0059ff07004f01be00a9
:101a300086fe0700809fbe000c00be000a01be00ab
:101a400082fe07001e01be0051ff07004f01be00cd
:101a50007ffe07008221270013f323004cff0700bd
:101a60000005be002e0090006100b900f0fe0700e6
:101a700001f0a2000c01be0075fe07000006be00ca
:101a80000800be00b70107000c01be0040ff0700c0
:101a90000a01be006efe0700809fbe004a000700dc
:101aa0002e0590000af0a7000a05ea00050037009d
:101ab0000800be000801be0035ff07000004be009c
:101ac0000c00be000801be000a00a70030ff07009e
:101ad0000006be000a05d100f5ff3a005e01900045
:101ae00002e0a600030037000001be003600070038
:101af0004b0007000004be004f00be008a00070034
:101b00000801be0022ff07003e019000730107009c
:101b1000de0590000bf0a70001f0a2004f06be000a
:101b20004f05be004f04be000080fa000000060012
:101b300025000700f9ff3700270007006000b80004
:101b40000bd0a7000bc0a0000be0a7000bc0a200a9
:101b50000bc0a70001f82700f0ff37000df8a30025
:101b6000020032001e000700190007000bf8a30056
:101b7000eaff32000b30a70001f0a200e7ff3700b8
:101b80000df8a300f9ff3a00f7ff37000801be0087
:101b90000b000700e6ff320001003c000df0a20040
:101ba0006000b8000df0a70009000700dbff370058
:101bb0000b000700f1ff2700f0ff2f00d7ff3700d1
:101bc00001000700e100370001f8230000000500d4
:101bd00001f8270000000500200220000100370066
:101be0001002200060418800000006000003be00d3
:101bf000bafe07006220e100020032000600be00cb
:101c000005000500e507b100f107b20004f023006c
:101c10008480700007f0a70001f0a00024000500f8
:101c2000889fbe008a9fbe008c1f7800c0fe070000
:101c3000c7fe330003866c006450e1002e003200c2
:101c40006420e100330032006150e1002f003200d7
:101c50006120e1003100320085855500eb07b000be
:101c60000900200008042000050037000804440093
:101c700089844c000a0031000603430087834b002f
:101c80000001530081815b00f8ff33000203be00b6
:101c90000800a0000804440089844c00f6ff3900c5
:101ca000c639dd00830173000100320013002000fb
:101cb0008904d1000884d3000998a30005003200ec
:101cc0000800a7000300a0008904d1000884d30005
:101cd0008b05e8008904d1000884d3000001eb00e3
:101ce0000281d20057fe070001f0a1000cf0a7000e
:101cf00001f0a0009ffe37006420e100a1fe320049
:101d00000801be000200be00f7ff37006120e100bd
:101d10009cfe32006000b800f3ff37000000200096
:101d200001f82700f0ff3700889fbe008a9fbe00a1
:101d30008c9fbe000004be0068fe07000800be00c5
:101d40006420e10048003e00550032007221270067
:101d5000132b24007f00070047003c000800be0052
:101d6000c2ec2800e32c2c00780007004700350067
:101d70000800be0001f0a10002002000033823008b
:101d800072000700430035000800be00b2a32a001d
:101d900083fb23007efe07000200200003f02300e7
:101da00001f0a70003f0a000a9fd07006b000700e9
:101db0000005be001efe070001f0a2000006be00e6
:101dc0000200280013f3230071fe07000801be0083
:101dd0009ffd0700809fbe000c00be003208280057
:101de000e3952b006afe07004f01be0098fd070037
:101df0000006be000001be0065fe0700809fbe0019
:101e00004241250083b8230061fe07000200200044
:101e100003e823008efd07000c01be005cfe0700f6
:101e20000006be004f00be00f2f92b00c3d4230011
:101e300057fe07000200200003f0230084fd070086
:101e40000c01be0081fd07000001be000c00be00b9
:101e500073ff07000200200003f023007cfd070051
:101e6000610145009d0007004f06be004f05be0002
:101e70004f04be000000060001f82700000020000b
:101e80002202200062418800f7ff37006000b8009e
:101e9000fbff370001f8230000002000f2ff3700ad
:101ea00009f8a300f0ff32006000b800eeff370031
:101eb000889fbe008a9fbe000003be0007fe070089
:101ec0008505780082815200020020006220e10036
:101ed00004003a00f307b100040035007718e10070
:101ee000040035000600be00140037006000b80092
:101ef0000f003700f50f2000faff2f008502d100f8
:101f00000a85d3008301e900fcff3b008184620065
:101f100000046500890f7400f2ff32008582ea0038
:101f20000a85ea008184620000046500c5fd07009f
:101f300007f0a70001f0a0000081eb000200e00024
:101f40004f05be004f04be00000006001400200034
:101f5000db003700f4ff2f00d90037000001be007e
:101f6000defd07000470a70003f0a1006509b100c1
:101f7000160032000d0035006828e100060035002b
:101f8000f0ff2f00f1ff27000300e00013003b00eb
:101f9000010028000000050000004000818048008a
:101fa0008502e900fcff3a0008003700f88f420084
:101fb00002003c008000eb00000005008100d10021
:101fc0000080d3008502e800fcff3a000300e00037
:101fd00002003b0060001000e080180000000600d6
:101fe000881f7800030478000300e00007003d002c
:101ff00060001000e080180060011900e081190005
:1020000002003b0001f02d00030037000400070030
:1020100008f0a70001f0a0004f04780000000600bf
:10202000889fbe008a9fbe0000827000040271007b
:1020300004827100260032000004be000200be00cf
:102040006011b8006b092000950220000182cf00ca
:102050000a0039000541b1000082cf0007003900b5
:102060000541b1000982cf00040039000541b100eb
:102070000882cf00010039000541b100054252003d
:10208000120032000a003b0082817100610164008d
:102090008100d1000080d3008984d3000884d3005c
:1020a0008b05e8000442e800f7ff3a00070037001c
:1020b0000804440089844c000000480081804800e6
:1020c0008b05e9000442e900f9ff3a005dfd0700d5
:1020d0004f05be004f04be00000006000003be0016
:1020e0007efd07006220e100020032000600be0013
:1020f0000000060085024100e30f20000328e100f4
:1021000005003c00a3fe2f000328e10007003d006e
:102110000500200001003700f50f200020022000fc
:10212000604188006000b8000800370013002000fc
:102130008381520005003d008100d1000080d30062
:102140008301e800fcff3a0005002000c72add00fb
:10215000f107b2008580700007f0a70001f0a00031
:1021600000000600889fbe008a9fbe008c9fbe00b4
:102170009efe0700850478000005be006420e10093
:1021800049003e006220e1000300320009003500f2
:102190000bf8a300440032000bf8a3000800320043
:1021a0001002200060418800f0ff2f00f1ff27009f
:1021b0003d00370001f82f00000020003a003700f2
:1021c0003d000700a1fc07000006be000a00be009b
:1021d000324f200053f323005eff07000600340057
:1021e0000c00be003400070098fc07000006be008b
:1021f0000a00be00020037008904e9000c00be009e
:102200002d00070062fd07002b00070090fc07006f
:102210000001be000c00be0081fe07000005be00ec
:102220000001be005afd07000006be00a2f3230015
:10223000430d2c0086fc0700809fbe000c00be00f2
:10224000d2e32700d3f02b0051fd07004f01be0061
:1022500073fe07000006be000a01be004cfd070029
:102260000a01be007afc07000006be006148b90002
:10227000effc07000005be0032082800e3952b00a4
:1022800043fd07000c01be0071fc07000006be0004
:102290000a00be000200280013f323003cfd0700e3
:1022a0000c01be006afc07004f06be004f05be00d1
:1022b0004f04be000000060003f0230002000500ea
:1022c000889fbe008a9fbe00841f780018fd07000b
:1022d0004f00780011003300f0ff2f00838f6c0057
:1022e00006003b00040565000a00a700080037004f
:1022f00009f0a6001000200008003700820f5400eb
:10230000838f5c00030039001000200001003e00b4
:102310000000200009f0a7000000ea004f05be0001
:0c2320004f04be000000e00000000600ba
:020000040000fa
:10232c0000000000c1c0000081c10000400100009d
:10233c0001c30000c00300008002000041c2000085
:10234c0001c60000c00600008007000041c7000065
:10235c0000050000c1c5000081c40000400400005d
:10236c0001cc0000c00c0000800d000041cd00002d
:10237c00000f0000c1cf000081ce0000400e000015
:10238c00000a0000c1ca000081cb0000400b000015
:10239c0001c90000c00900008008000041c800000d
:1023ac0001d80000c01800008019000041d90000bd
:1023bc00001b0000c1db000081da0000401a0000a5
:1023cc00001e0000c1de000081df0000401f000085
:1023dc0001dd0000c01d0000801c000041dc00007d
:1023ec0000140000c1d4000081d50000401500008d
:1023fc0001d70000c01700008016000041d6000075
:10240c0001d20000c01200008013000041d3000074
:10241c0000110000c1d1000081d00000401000006c
:10242c0001f00000c03000008031000041f10000dc
:10243c0000330000c1f3000081f2000040320000c4
:10244c0000360000c1f6000081f7000040370000a4
:10245c0001f50000c03500008034000041f400009c
:10246c00003c0000c1fc000081fd0000403d00006c
:10247c0001ff0000c03f0000803e000041fe000054
:10248c0001fa0000c03a0000803b000041fb000054
:10249c0000390000c1f9000081f80000403800004c
:1024ac0000280000c1e8000081e90000402900007c
:1024bc0001eb0000c02b0000802a000041ea000064
:1024cc0001ee0000c02e0000802f000041ef000044
:1024dc00002d0000c1ed000081ec0000402c00003c
:1024ec0001e40000c02400008025000041e500004c
:1024fc0000270000c1e7000081e600004026000034
:10250c0000220000c1e2000081e300004023000033
:10251c0001e10000c02100008020000041e000002b
:10252c0001a00000c06000008061000041a100001b
:10253c0000630000c1a3000081a200004062000003
:10254c0000660000c1a6000081a7000040670000e3
:10255c0001a50000c06500008064000041a40000db
:10256c00006c0000c1ac000081ad0000406d0000ab
:10257c0001af0000c06f0000806e000041ae000093
:10258c0001aa0000c06a0000806b000041ab000093
:10259c0000690000c1a9000081a80000406800008b
:1025ac0000780000c1b8000081b90000407900003b
:1025bc0001bb0000c07b0000807a000041ba000023
:1025cc0001be0000c07e0000807f000041bf000003
:1025dc00007d0000c1bd000081bc0000407c0000fb
:1025ec0001b40000c07400008075000041b500000b
:1025fc0000770000c1b7000081b6000040760000f3
:10260c0000720000c1b2000081b3000040730000f2
:10261c0001b10000c07100008070000041b00000ea
:10262c0000500000c190000081910000405100005a
:10263c0001930000c0530000805200004192000042
:10264c0001960000c0560000805700004197000022
:10265c0000550000c195000081940000405400001a
:10266c00019c0000c05c0000805d0000419d0000ea
:10267c00005f0000c19f0000819e0000405e0000d2
:10268c00005a0000c19a0000819b0000405b0000d2
:10269c0001990000c05900008058000041980000ca
:1026ac0001880000c04800008049000041890000fa
:1026bc00004b0000c18b0000818a0000404a0000e2
:1026cc00004e0000c18e0000818f0000404f0000c2
:1026dc00018d0000c04d0000804c0000418c0000ba
:1026ec0000440000c18400008185000040450000ca
:1026fc0001870000c04700008046000041860000b2
:10270c0001820000c04200008043000041830000b1
:10271c0000410000c18100008180000040400000a9
:020000040000fa
:10272c000000fa00611680000004200000806000a8
:10273c000000e0000300320010002000e047880099
:10274c00020037000000eb00e047880061168000b3
:10275c0000082000008060000000e0000300320050
:10276c0010002000f0478800020037000000eb004a
:10277c00f047880061168000001020000080600087
:10278c000000e00003003200100020000048880028
:10279c00020037000000eb00004888006116800042
:1027ac0000202000008060000000e00003003200e8
:1027bc001000200010488800020037000000eb00d9
:1027cc0010488800611680000040200000806000e6
:1027dc000000e000030032001000200020488800b8
:1027ec00020037000000eb002048880061168000d2
:1027fc0000802000008060000000e0000300320038
:10280c001000200030488800020037000000eb0068
:10281c00304888000080fa00000006000400fa002e
:10282c00000f7800110798009e00900000f02f0018
:10283c00808f500003003a00100020001007980011
:10284c00020037000000eb00100798001e00780013
:10285c00e20f500024003200e20f500005003e0051
:10286c000000e0000a003200e10f500013003200bb
:10287c0049003700e40f500031003200e40f5000e3
:10288c0024003900e50f50003800320042003700b8
:10289c001e00900000407800614060000080fb004a
:1028ac00610060004600dd00611680000160a1003f
:1028bc000100700060168800370037001e00900081
:1028cc0000407800614060000080fb006100600007
:1028dc004700dd00611680000170a100010070004e
:1028ec00601688002c0037001e0090000040780015
:1028fc00614060000080fb00610060004800dd006a
:10290c00611680000180a100010070006016880033
:10291c00210037001e0090000040780061406000ec
:10292c000080fb00610060004900dd006116800042
:10293c000190a1000100700060168800160037009d
:10294c001e00900000407800614060000080fb0099
:10295c00610060004a00dd006116800001a0a1004a
:10296c0001007000601688000b0037001e009000fc
:10297c0000407800614060000080fb006100600056
:10298c004b00dd006116800001b0a1000100700059
:10299c0060168800000000000080fa0000000600ad
:1029ac000600fa00889fbe008a9fbe0010079800a0
:1029bc00210798005aff07000000eb00000f780079
:1029cc000828ef002e0090005040880021003700ae
:1029dc001e0078008000eb0015fb07000004be0011
:1029ec005040800080004000c08f200000804000dc
:1029fc0010007800cf80de000afb07000005be0047
:102a0c0040408000cf80de0006fb07000001be00c6
:102a1c0000002000010024008efb07000001be0016
:102a2c000a00be0057fb07000001be000800be00f4
:102a3c0084fa0700e0fa0700000f7800404080009d
:102a4c000000e80040408800504080000000e80092
:102a5c005040880050408000800078002e0190008b
:102a6c001e00900000004100808f5000d8ff3900fc
:102a7c001e0078004f05be004f04be000080fa0017
:102a8c00000006000000fa00800020008011880081
:102a9c003222ef00001a2000c011880087c0a90064
:102aac0097c0a80031e2a8003342a80087e0a90033
:102abc0097e0a8000080fa00000006000000fa0071
:102acc0000002800001988002223ef002423ef00c7
:102adc002823ef003023ef00101980004200de00a5
:102aec006f4060002ae8b70095a0a8000080fa00ab
:102afc00000006000000fa002023a8000080fa0065
:102b0c00000006000000fa002023a9000080fa0053
:102b1c00000006000600fa00200798000030200094
:102b2c00100798000000eb00000f78000b00370036
:102b3c001e00780000004000ae00900000804000b5
:102b4c009e00900091007800010878001e00900013
:102b5c000080e800100798001e0fe8002ac8bf008c
:102b6c000080fb009e0f5000f1ff3d001e0078001e
:102b7c000080fa00000006000000fa000018800037
:102b8c000080fa00000006000000fa000019800026
:102b9c0000407800614060000080fb0000f0a7005e
:102bac000000ea000000ea004f00de000040780060
:102bbc000080fa00000006000200fa00000f780006
:102bcc009e007800411988000080fa000000060081
:102bdc000000fa000080fa00000006000400fa0071
:102bec0010079800b5ff07001e009000f2ff0700c9
:102bfc00c0ff07000000eb00000f78000100370059
:102c0c001e0fe800703e20009e007800808f500060
:102c1c00fbff3400bbff070000000000daff0700d9
:102c2c000004a2000004e000fcff3a00d2ff070001
:102c3c000080fa00000006000000fa000621ef00f8
:102c4c00300e2000600888000003280080088800ef
:102c5c00404180000000e00002003a00a067210023
:102c6c002400070084e0a90094e0a80080922000d2
:102c7c008040eb00014878000080fa00000006005c
:102c8c000200fa00000f78009e00780061088800ae
:102c9c00809220008040eb00014878000080fa0010
:102cac00000006000000fa00600880000080fa00b6
:102cbc00000006000200fa00000f78009e00780069
:102ccc0031088800809220008040eb000148780099
:102cdc000080fa00000006000000fa0030088000b6
:102cec000080fa00000006000000fa000080fa00e4
:102cfc00000006000200fa00000f780094e0a90022
:102d0c009e0078004141880094e0a8000080fa0001
:102d1c00000006000000fa00809220008040eb00ca
:102d2c000148780094e0a80011e1a8000080fa00a6
:102d3c00000006000000fa0011e1a90094e0a900cf
:102d4c000080fa00000006000200fa0080922000c9
:102d5c00104f78001e4078000004e00003003200a1
:102d6c00809220008040eb00014878001e407800e3
:102d7c000080fa00000006000000fa00909220008b
:102d8c00104078000080fb000080fa000000060074
:102d9c000000fa00909220008040eb00014878007f
:102dac000080fa00000006000000fa0043c7bf00d4
:102dbc008080fb00800f20000081600080072000d5
:102dcc00a1092000337420008049780081497800e3
:102ddc0082497800103a80004c00de00e740600029
:102dec00103a80004800de006740600080cf500041
:102dfc001300320042c7bf000081fb0060042000ba
:102e0c0071052000237420008049780081497800e6
:102e1c008249780000000000103a800061006000d8
:102e2c000000e000fcff3a0000000000113a8000b6
:102e3c0000022000008060000000e000fbff320078
:102e4c0000002300203a88004827ef007027ef008d
:102e5c007227ef007427ef0012002000800720007b
:102e6c00a109200033742000804978008149780042
:102e7c0082497800120020006004200071052000b7
:102e8c0023742000804978008149780082497800b9
:102e9c000080fa00000006000000fa00c422ef00d7
:102eac00cc22ef00c402a900c422a900f00120002a
:102ebc0000168800f003270040168800c002a90005
:102ecc00c022a9006820ef006a20ef00c622ef00a4
:102edc00ce22ef00c040200060198800113a80001b
:102eec00f00b2000008160006004200071052000c0
:102efc002374200080497800814978008249780049
:102f0c0071368000f00f2e00808060000050200091
:102f1c0001007000703688003135800000fe2f00f3
:102f2c0000806000e000b30030358800103a80006b
:102f3c00000178000260a0006004200071052000f0
:102f4c0023742000804978008149780082497800f8
:102f5c000080fa00000006000800fa002007980024
:102f6c00310798000080eb00000f78001300370049
:102f7c002e009000904078001e00780000407800f1
:102f8c0000c06800204798002e0090000000e80068
:102f9c00200798001e0078004800de00000f780023
:102fac002e4090000080fb0080004000601929003a
:102fbc0000804000100078001e0f68003e0090005a
:102fcc0000f0a7000000ea000000ea004f00de005d
:102fdc0000407800be0090008100e90031079800a5
:102fec000004e000e2ff3a001e0078000080fa00c6
:042ffc0000000600cb
:020000040000fa
:103000000809000020000000000000002408000063
:103010000200000002000000ffff00002e08000078
:10302000da0000000000000000080000240000009a
:10303000000000002608000002000000020000005e
:10304000010000002809000002000000000000004c
:103050002808000002000000000000002a0800000c
:1030600002000000000000002c0800000200000028
:08307000000000000000000058
:020000040000fa
:103078000000fa0021068000f08f2f000080600019
:103088000080a0002006880091058000f0ff28003d
:103098000080600000c0a0009005880091058000b5
:1030a800f08f2f00008060000080a000900588004d
:1030b80031058000f0ff28000080600000c0a000fb
:1030c800300588000080fa0000000600000f780034
:1030d8009e00780021418800ffff37000000fa00b9
:1030e800809020008007780000922000000188006e
:1030f8000080fa00000006000000fa0067ff0700e1
:10310800dbff070029ff07005ffe0700cbfe070073
:103118000080fa00000006000000fa0023ff070004
:103128000080fa00000006000000fa00f2ff070025
:04313800ffff37005e
:020000040000fa
:020000040001f9
:0457f8001f79000015
:020000040000fa
:020000040001f9
:0457fc007f3f0000eb
:00000001FF
